{
  "contractName": "BurnableToken",
  "abi": [
    {
      "constant": true,
      "inputs": [],
      "name": "totalSupply",
      "outputs": [
        {
          "name": "",
          "type": "uint256"
        }
      ],
      "payable": false,
      "stateMutability": "view",
      "type": "function"
    },
    {
      "constant": true,
      "inputs": [
        {
          "name": "_owner",
          "type": "address"
        }
      ],
      "name": "balanceOf",
      "outputs": [
        {
          "name": "",
          "type": "uint256"
        }
      ],
      "payable": false,
      "stateMutability": "view",
      "type": "function"
    },
    {
      "constant": false,
      "inputs": [
        {
          "name": "_to",
          "type": "address"
        },
        {
          "name": "_value",
          "type": "uint256"
        }
      ],
      "name": "transfer",
      "outputs": [
        {
          "name": "",
          "type": "bool"
        }
      ],
      "payable": false,
      "stateMutability": "nonpayable",
      "type": "function"
    },
    {
      "anonymous": false,
      "inputs": [
        {
          "indexed": true,
          "name": "burner",
          "type": "address"
        },
        {
          "indexed": false,
          "name": "value",
          "type": "uint256"
        }
      ],
      "name": "Burn",
      "type": "event"
    },
    {
      "anonymous": false,
      "inputs": [
        {
          "indexed": true,
          "name": "from",
          "type": "address"
        },
        {
          "indexed": true,
          "name": "to",
          "type": "address"
        },
        {
          "indexed": false,
          "name": "value",
          "type": "uint256"
        }
      ],
      "name": "Transfer",
      "type": "event"
    },
    {
      "constant": false,
      "inputs": [
        {
          "name": "_value",
          "type": "uint256"
        }
      ],
      "name": "burn",
      "outputs": [],
      "payable": false,
      "stateMutability": "nonpayable",
      "type": "function"
    }
  ],
  "bytecode": "0x608060405234801561001057600080fd5b5061060d806100206000396000f300608060405260043610610062576000357c0100000000000000000000000000000000000000000000000000000000900463ffffffff16806318160ddd1461006757806342966c681461009257806370a08231146100bf578063a9059cbb14610116575b600080fd5b34801561007357600080fd5b5061007c61017b565b6040518082815260200191505060405180910390f35b34801561009e57600080fd5b506100bd60048036038101908080359060200190929190505050610185565b005b3480156100cb57600080fd5b50610100600480360381019080803573ffffffffffffffffffffffffffffffffffffffff169060200190929190505050610192565b6040518082815260200191505060405180910390f35b34801561012257600080fd5b50610161600480360381019080803573ffffffffffffffffffffffffffffffffffffffff169060200190929190803590602001909291905050506101da565b604051808215151515815260200191505060405180910390f35b6000600154905090565b61018f33826103f9565b50565b60008060008373ffffffffffffffffffffffffffffffffffffffff1673ffffffffffffffffffffffffffffffffffffffff168152602001908152602001600020549050919050565b60008073ffffffffffffffffffffffffffffffffffffffff168373ffffffffffffffffffffffffffffffffffffffff161415151561021757600080fd5b6000803373ffffffffffffffffffffffffffffffffffffffff1673ffffffffffffffffffffffffffffffffffffffff16815260200190815260200160002054821115151561026457600080fd5b6102b5826000803373ffffffffffffffffffffffffffffffffffffffff1673ffffffffffffffffffffffffffffffffffffffff168152602001908152602001600020546105ac90919063ffffffff16565b6000803373ffffffffffffffffffffffffffffffffffffffff1673ffffffffffffffffffffffffffffffffffffffff16815260200190815260200160002081905550610348826000808673ffffffffffffffffffffffffffffffffffffffff1673ffffffffffffffffffffffffffffffffffffffff168152602001908152602001600020546105c590919063ffffffff16565b6000808573ffffffffffffffffffffffffffffffffffffffff1673ffffffffffffffffffffffffffffffffffffffff168152602001908152602001600020819055508273ffffffffffffffffffffffffffffffffffffffff163373ffffffffffffffffffffffffffffffffffffffff167fddf252ad1be2c89b69c2b068fc378daa952ba7f163c4a11628f55a4df523b3ef846040518082815260200191505060405180910390a36001905092915050565b6000808373ffffffffffffffffffffffffffffffffffffffff1673ffffffffffffffffffffffffffffffffffffffff16815260200190815260200160002054811115151561044657600080fd5b610497816000808573ffffffffffffffffffffffffffffffffffffffff1673ffffffffffffffffffffffffffffffffffffffff168152602001908152602001600020546105ac90919063ffffffff16565b6000808473ffffffffffffffffffffffffffffffffffffffff1673ffffffffffffffffffffffffffffffffffffffff168152602001908152602001600020819055506104ee816001546105ac90919063ffffffff16565b6001819055508173ffffffffffffffffffffffffffffffffffffffff167fcc16f5dbb4873280815c1ee09dbd06736cffcc184412cf7a71a0fdb75d397ca5826040518082815260200191505060405180910390a2600073ffffffffffffffffffffffffffffffffffffffff168273ffffffffffffffffffffffffffffffffffffffff167fddf252ad1be2c89b69c2b068fc378daa952ba7f163c4a11628f55a4df523b3ef836040518082815260200191505060405180910390a35050565b60008282111515156105ba57fe5b818303905092915050565b600081830190508281101515156105d857fe5b809050929150505600a165627a7a723058207fd2c0e41c614aec11a8dfec81b298b7bd248f5c120153750e6e95530c5919510029",
  "source": "pragma solidity ^0.4.23;\n\n/**\n * @title SafeMath\n * @dev Math operations with safety checks that throw on error\n */\nlibrary SafeMath {\n\n    /**\n    * @dev Multiplies two numbers, throws on overflow.\n    */\n    function mul(uint256 a, uint256 b) internal pure returns (uint256 c) {\n        if (a == 0) {\n            return 0;\n        }\n        c = a * b;\n        assert(c / a == b);\n        return c;\n    }\n\n    /**\n    * @dev Integer division of two numbers, truncating the quotient.\n    */\n    function div(uint256 a, uint256 b) internal pure returns (uint256) {\n        // assert(b > 0); // Solidity automatically throws when dividing by 0\n        // uint256 c = a / b;\n        // assert(a == b * c + a % b); // There is no case in which this doesn't hold\n        return a / b;\n    }\n\n    /**\n    * @dev Subtracts two numbers, throws on overflow (i.e. if subtrahend is greater than minuend).\n    */\n    function sub(uint256 a, uint256 b) internal pure returns (uint256) {\n        assert(b <= a);\n        return a - b;\n    }\n\n    /**\n    * @dev Adds two numbers, throws on overflow.\n    */\n    function add(uint256 a, uint256 b) internal pure returns (uint256 c) {\n        c = a + b;\n        assert(c >= a);\n        return c;\n    }\n}\n\n\n/**\n * @title ERC20Basic\n * @dev Simpler version of ERC20 interface\n * @dev see https://github.com/ethereum/EIPs/issues/179\n */\ncontract ERC20Basic {\n    function totalSupply() public view returns (uint256);\n\n    function balanceOf(address who) public view returns (uint256);\n\n    function transfer(address to, uint256 value) public returns (bool);\n\n    event Transfer(address indexed from, address indexed to, uint256 value);\n}\n\n/**\n * @title ERC20 interface\n * @dev see https://github.com/ethereum/EIPs/issues/20\n */\ncontract ERC20 is ERC20Basic {\n    function allowance(address owner, address spender)\n    public view returns (uint256);\n\n    function transferFrom(address from, address to, uint256 value)\n    public returns (bool);\n\n    function approve(address spender, uint256 value) public returns (bool);\n\n    event Approval(\n        address indexed owner,\n        address indexed spender,\n        uint256 value\n    );\n}\n\n\n/**\n * @title Basic token\n * @dev Basic version of StandardToken, with no allowances.\n */\ncontract BasicToken is ERC20Basic {\n    using SafeMath for uint256;\n\n    mapping(address => uint256) balances;\n\n    uint256 totalSupply_;\n\n    /**\n    * @dev total number of tokens in existence\n    */\n    function totalSupply() public view returns (uint256) {\n        return totalSupply_;\n    }\n\n    /**\n    * @dev transfer token for a specified address\n    * @param _to The address to transfer to.\n    * @param _value The amount to be transferred.\n    */\n    function transfer(address _to, uint256 _value) public returns (bool) {\n        require(_to != address(0));\n        require(_value <= balances[msg.sender]);\n\n        balances[msg.sender] = balances[msg.sender].sub(_value);\n        balances[_to] = balances[_to].add(_value);\n        emit Transfer(msg.sender, _to, _value);\n        return true;\n    }\n\n    /**\n    * @dev Gets the balance of the specified address.\n    * @param _owner The address to query the the balance of.\n    * @return An uint256 representing the amount owned by the passed address.\n    */\n    function balanceOf(address _owner) public view returns (uint256) {\n        return balances[_owner];\n    }\n\n}\n\n/**\n * @title Standard ERC20 token\n *\n * @dev Implementation of the basic standard token.\n * @dev https://github.com/ethereum/EIPs/issues/20\n * @dev Based on code by FirstBlood: https://github.com/Firstbloodio/token/blob/master/smart_contract/FirstBloodToken.sol\n */\ncontract StandardToken is ERC20, BasicToken {\n\n    mapping(address => mapping(address => uint256)) internal allowed;\n\n\n    /**\n     * @dev Transfer tokens from one address to another\n     * @param _from address The address which you want to send tokens from\n     * @param _to address The address which you want to transfer to\n     * @param _value uint256 the amount of tokens to be transferred\n     */\n    function transferFrom(\n        address _from,\n        address _to,\n        uint256 _value\n    )\n    public\n    returns (bool)\n    {\n        require(_to != address(0));\n        require(_value <= balances[_from]);\n        require(_value <= allowed[_from][msg.sender]);\n\n        balances[_from] = balances[_from].sub(_value);\n        balances[_to] = balances[_to].add(_value);\n        allowed[_from][msg.sender] = allowed[_from][msg.sender].sub(_value);\n        emit Transfer(_from, _to, _value);\n        return true;\n    }\n\n    /**\n     * @dev Approve the passed address to spend the specified amount of tokens on behalf of msg.sender.\n     *\n     * Beware that changing an allowance with this method brings the risk that someone may use both the old\n     * and the new allowance by unfortunate transaction ordering. One possible solution to mitigate this\n     * race condition is to first reduce the spender's allowance to 0 and set the desired value afterwards:\n     * https://github.com/ethereum/EIPs/issues/20#issuecomment-263524729\n     * @param _spender The address which will spend the funds.\n     * @param _value The amount of tokens to be spent.\n     */\n    function approve(address _spender, uint256 _value) public returns (bool) {\n        allowed[msg.sender][_spender] = _value;\n        emit Approval(msg.sender, _spender, _value);\n        return true;\n    }\n\n    /**\n     * @dev Function to check the amount of tokens that an owner allowed to a spender.\n     * @param _owner address The address which owns the funds.\n     * @param _spender address The address which will spend the funds.\n     * @return A uint256 specifying the amount of tokens still available for the spender.\n     */\n    function allowance(\n        address _owner,\n        address _spender\n    )\n    public\n    view\n    returns (uint256)\n    {\n        return allowed[_owner][_spender];\n    }\n\n    /**\n     * @dev Increase the amount of tokens that an owner allowed to a spender.\n     *\n     * approve should be called when allowed[_spender] == 0. To increment\n     * allowed value is better to use this function to avoid 2 calls (and wait until\n     * the first transaction is mined)\n     * From MonolithDAO Token.sol\n     * @param _spender The address which will spend the funds.\n     * @param _addedValue The amount of tokens to increase the allowance by.\n     */\n    function increaseApproval(\n        address _spender,\n        uint _addedValue\n    )\n    public\n    returns (bool)\n    {\n        allowed[msg.sender][_spender] = (\n        allowed[msg.sender][_spender].add(_addedValue));\n        emit Approval(msg.sender, _spender, allowed[msg.sender][_spender]);\n        return true;\n    }\n\n    /**\n     * @dev Decrease the amount of tokens that an owner allowed to a spender.\n     *\n     * approve should be called when allowed[_spender] == 0. To decrement\n     * allowed value is better to use this function to avoid 2 calls (and wait until\n     * the first transaction is mined)\n     * From MonolithDAO Token.sol\n     * @param _spender The address which will spend the funds.\n     * @param _subtractedValue The amount of tokens to decrease the allowance by.\n     */\n    function decreaseApproval(\n        address _spender,\n        uint _subtractedValue\n    )\n    public\n    returns (bool)\n    {\n        uint oldValue = allowed[msg.sender][_spender];\n        if (_subtractedValue > oldValue) {\n            allowed[msg.sender][_spender] = 0;\n        } else {\n            allowed[msg.sender][_spender] = oldValue.sub(_subtractedValue);\n        }\n        emit Approval(msg.sender, _spender, allowed[msg.sender][_spender]);\n        return true;\n    }\n\n}\n\n/**\n * @title Burnable Token\n * @dev Token that can be irreversibly burned (destroyed).\n */\ncontract BurnableToken is BasicToken {\n\n    event Burn(address indexed burner, uint256 value);\n\n    /**\n     * @dev Burns a specific amount of tokens.\n     * @param _value The amount of token to be burned.\n     */\n    function burn(uint256 _value) public {\n        _burn(msg.sender, _value);\n    }\n\n    function _burn(address _who, uint256 _value) internal {\n        require(_value <= balances[_who]);\n        // no need to require value <= totalSupply, since that would imply the\n        // sender's balance is greater than the totalSupply, which *should* be an assertion failure\n\n        balances[_who] = balances[_who].sub(_value);\n        totalSupply_ = totalSupply_.sub(_value);\n        emit Burn(_who, _value);\n        emit Transfer(_who, address(0), _value);\n    }\n\n}\n\n/**\n * @title Standard Burnable Token\n * @dev Adds burnFrom method to ERC20 implementations\n */\ncontract StandardBurnableToken is BurnableToken, StandardToken {\n\n    /**\n     * @dev Burns a specific amount of tokens from the target address and decrements allowance\n     * @param _from address The address which you want to send tokens from\n     * @param _value uint256 The amount of token to be burned\n     */\n    function burnFrom(address _from, uint256 _value) public {\n        require(_value <= allowed[_from][msg.sender]);\n        // Should https://github.com/OpenZeppelin/zeppelin-solidity/issues/707 be accepted,\n        // this function needs to emit an event with the updated approval.\n        allowed[_from][msg.sender] = allowed[_from][msg.sender].sub(_value);\n        _burn(_from, _value);\n    }\n}\n\n/**\n * @title ERC827 interface, an extension of ERC20 token standard\n *\n * @dev Interface of a ERC827 token, following the ERC20 standard with extra\n * @dev methods to transfer value and data and execute calls in transfers and\n * @dev approvals.\n */\ncontract ERC827 is ERC20 {\n    function approveAndCall(\n        address _spender,\n        uint256 _value,\n        bytes _data\n    )\n    public\n    payable\n    returns (bool);\n\n    function transferAndCall(\n        address _to,\n        uint256 _value,\n        bytes _data\n    )\n    public\n    payable\n    returns (bool);\n\n    function transferFromAndCall(\n        address _from,\n        address _to,\n        uint256 _value,\n        bytes _data\n    )\n    public\n    payable\n    returns (bool);\n}\n\n/**\n * @title ERC827, an extension of ERC20 token standard\n *\n * @dev Implementation the ERC827, following the ERC20 standard with extra\n * @dev methods to transfer value and data and execute calls in transfers and\n * @dev approvals.\n *\n * @dev Uses OpenZeppelin StandardToken.\n */\ncontract ERC827Token is ERC827, StandardToken {\n\n    /**\n     * @dev Addition to ERC20 token methods. It allows to\n     * @dev approve the transfer of value and execute a call with the sent data.\n     *\n     * @dev Beware that changing an allowance with this method brings the risk that\n     * @dev someone may use both the old and the new allowance by unfortunate\n     * @dev transaction ordering. One possible solution to mitigate this race condition\n     * @dev is to first reduce the spender's allowance to 0 and set the desired value\n     * @dev afterwards:\n     * @dev https://github.com/ethereum/EIPs/issues/20#issuecomment-263524729\n     *\n     * @param _spender The address that will spend the funds.\n     * @param _value The amount of tokens to be spent.\n     * @param _data ABI-encoded contract call to call `_to` address.\n     *\n     * @return true if the call function was executed successfully\n     */\n    function approveAndCall(\n        address _spender,\n        uint256 _value,\n        bytes _data\n    )\n    public\n    payable\n    returns (bool)\n    {\n        require(_spender != address(this));\n\n        super.approve(_spender, _value);\n\n        // solium-disable-next-line security/no-call-value\n        require(_spender.call.value(msg.value)(_data));\n\n        return true;\n    }\n\n    /**\n     * @dev Addition to ERC20 token methods. Transfer tokens to a specified\n     * @dev address and execute a call with the sent data on the same transaction\n     *\n     * @param _to address The address which you want to transfer to\n     * @param _value uint256 the amout of tokens to be transfered\n     * @param _data ABI-encoded contract call to call `_to` address.\n     *\n     * @return true if the call function was executed successfully\n     */\n    function transferAndCall(\n        address _to,\n        uint256 _value,\n        bytes _data\n    )\n    public\n    payable\n    returns (bool)\n    {\n        require(_to != address(this));\n\n        super.transfer(_to, _value);\n\n        // solium-disable-next-line security/no-call-value\n        require(_to.call.value(msg.value)(_data));\n        return true;\n    }\n\n    /**\n     * @dev Addition to ERC20 token methods. Transfer tokens from one address to\n     * @dev another and make a contract call on the same transaction\n     *\n     * @param _from The address which you want to send tokens from\n     * @param _to The address which you want to transfer to\n     * @param _value The amout of tokens to be transferred\n     * @param _data ABI-encoded contract call to call `_to` address.\n     *\n     * @return true if the call function was executed successfully\n     */\n    function transferFromAndCall(\n        address _from,\n        address _to,\n        uint256 _value,\n        bytes _data\n    )\n    public payable returns (bool)\n    {\n        require(_to != address(this));\n\n        super.transferFrom(_from, _to, _value);\n\n        // solium-disable-next-line security/no-call-value\n        require(_to.call.value(msg.value)(_data));\n        return true;\n    }\n\n    /**\n     * @dev Addition to StandardToken methods. Increase the amount of tokens that\n     * @dev an owner allowed to a spender and execute a call with the sent data.\n     *\n     * @dev approve should be called when allowed[_spender] == 0. To increment\n     * @dev allowed value is better to use this function to avoid 2 calls (and wait until\n     * @dev the first transaction is mined)\n     * @dev From MonolithDAO Token.sol\n     *\n     * @param _spender The address which will spend the funds.\n     * @param _addedValue The amount of tokens to increase the allowance by.\n     * @param _data ABI-encoded contract call to call `_spender` address.\n     */\n    function increaseApprovalAndCall(\n        address _spender,\n        uint _addedValue,\n        bytes _data\n    )\n    public\n    payable\n    returns (bool)\n    {\n        require(_spender != address(this));\n\n        super.increaseApproval(_spender, _addedValue);\n\n        // solium-disable-next-line security/no-call-value\n        require(_spender.call.value(msg.value)(_data));\n\n        return true;\n    }\n\n    /**\n     * @dev Addition to StandardToken methods. Decrease the amount of tokens that\n     * @dev an owner allowed to a spender and execute a call with the sent data.\n     *\n     * @dev approve should be called when allowed[_spender] == 0. To decrement\n     * @dev allowed value is better to use this function to avoid 2 calls (and wait until\n     * @dev the first transaction is mined)\n     * @dev From MonolithDAO Token.sol\n     *\n     * @param _spender The address which will spend the funds.\n     * @param _subtractedValue The amount of tokens to decrease the allowance by.\n     * @param _data ABI-encoded contract call to call `_spender` address.\n     */\n    function decreaseApprovalAndCall(\n        address _spender,\n        uint _subtractedValue,\n        bytes _data\n    )\n    public\n    payable\n    returns (bool)\n    {\n        require(_spender != address(this));\n\n        super.decreaseApproval(_spender, _subtractedValue);\n\n        // solium-disable-next-line security/no-call-value\n        require(_spender.call.value(msg.value)(_data));\n\n        return true;\n    }\n\n}\n\n/**\n * @title Freezable Token\n * @dev Token that can be Frozen.\n */\ncontract FreezableToken is BasicToken {\n\n    mapping (address => uint256) freezes;\n    event Freeze(address indexed from, uint256 value);\n    event Unfreeze(address indexed from, uint256 value);\n\n    function freeze(uint256 _value) public returns (bool success) {\n        require(_value <= balances[msg.sender]);\n        balances[msg.sender] = balances[msg.sender].sub(_value);\n        freezes[msg.sender] = freezes[msg.sender].add(_value);\n        emit Freeze(msg.sender, _value);\n        return true;\n    }\n\n    function unfreeze(uint256 _value) public returns (bool success) {\n        require(_value <= freezes[msg.sender]);\n        freezes[msg.sender] = freezes[msg.sender].sub(_value);\n        balances[msg.sender] = balances[msg.sender].add(_value);\n        emit Unfreeze(msg.sender, _value);\n        return true;\n    }\n    function freezeOf(address _owner) public view returns (uint256) {\n        return freezes[_owner];\n    }\n}\n\ncontract ChainBowToken is StandardBurnableToken, FreezableToken, ERC827Token {\n\n    string public name;\n    string public symbol;\n    uint8 public decimals;\n    address public admin;\n\n    constructor(address _teamWallet, uint256 _initialSupply, string _tokenName, string _tokenSymbol, uint8 _decimals) public {\n        totalSupply_ = _initialSupply;\n        balances[_teamWallet] = _initialSupply;\n        name = _tokenName;\n        symbol = _tokenSymbol;\n        decimals = _decimals;\n        admin = msg.sender;\n    }\n\n    /**\n     * withdraw foreign tokens\n     */\n    function withdrawForeignTokens(address _tokenContract) public returns (bool) {\n        require(msg.sender == admin);\n        ERC20Basic token = ERC20Basic(_tokenContract);\n        uint256 amount = token.balanceOf(address(this));\n        return token.transfer(admin, amount);\n    }\n\n}\n",
  "sourcePath": "/Users/lilong/Dropbox/workspace/chainbow_public_token/contracts/ChainBowToken.sol",
  "compiler": {
    "name": "solc",
    "version": "0.4.24+commit.e67f0147.Emscripten.clang"
  },
  "schemaVersion": "2.0.0",
  "updatedAt": "2018-06-12T00:39:01.899Z"
}